:03000000020030CB
:0100030032CA
:03000B000202BB33
:0100130032BA
:03001B0002024B93
:0100230032AA
:10003000C291758911758C00758A0075A88A7B003C
:10004000758160C2A771E49121911351FDD2A0D2B4
:10005000A1D2A2D2A3717B12005F1200B180F6126E
:10006000025D12025D12025D12025D12025D120259
:100070005D12025D12025D12025D12025DD29100FC
:100080000000000000000000000000000000C2911D
:100090003090FDD28CC28D2090FDC28CAE8CAF8A88
:1000A0007D3A7C001202668EF0EF758A00758C0036
:1000B00022C3F5F0F9940A4025C3E5F0F994144001
:1000C00035C3E5F0F9941E4045500122E500B40027
:1000D0000122D2A0D2A1D2A2D2A375000022E500B3
:1000E000B4010122C2A0D2A1D2A2D2A375000112F2
:1000F000012612013222E500B4020122D2A0C2A1DF
:10010000D2A2D2A375000212012612014822E500F4
:10011000B4030122D2A0D2A1C2A2D2A375000312BD
:10012000012612016522758911D2AFD2ABD2A9D2B4
:100130008E22D28C7C12053412025D053430B1055A
:10014000DCF40201320201BED28C75331475340026
:1001500012040630B1EF75346412040630B1E602C1
:0A016000014D0201BED28C780008A8
:10016A00883412025D12025D12025D12025D1202F1
:10017A005D30B14012025D12025D12025D12025D33
:10018A0012025D30B12EB864D6883412025D1202B2
:10019A005D12025D12025D12025D30B11712025D3C
:1001AA0012025D12025D12025D12025D30B105D8C3
:1001BA00D802016512025D12025D12025D12025D31
:1001CA0012025D12025D20B1EBD2A0D2A1D2A2C26C
:1001DA00AFC28EC2ABC28CC2A9C2A5C2A37533007C
:1001EA007532007531007530001203831202FD204A
:1001FA00B1FD12025D12025D12025D12025D12026F
:10020A005D12025D30B1E830B1024111D2A312028F
:10021A005D12025D12025D12025D12025D12025D42
:10022A0012025D20B1E620B1FD12025D12025D12DA
:10023A00025D12025D12025D12025D30B1E8020037
:10024A0055C2AF758DFE85348BB2A5D2AF327F0A07
:10025A00DFFE227BFA00000000DBFA22BC000BBEA4
:10026A000029EF8DF084FFADF022E4CCF875F00898
:10027A00EF2FFFEE33FEEC33FCEE9DEC984005FCCD
:10028A00EE9DFE0FD5F0E9E4CEFD22EDF8F5F0EE95
:10029A008420D21CFEADF075F008EF2FFFED33FD80
:0502AA0040079850061A
:1002AF00D5F0F222C398FD0FD5F0EA22C2AFC0E01D
:1002BF00758AB0758C3C0533E533B41E2C7533004D
:1002CF000532E532B43C200531753200E531B43CDE
:1002DF00160530753100E530B4180C7533007532E2
:1002EF000075310075300051FDD0E0D2AF32E530EE
:1002FF0075360871230536743A8536F0713EE5314F
:10030F00053671230536743A8536F0713EE53205B0
:10031F003671232275F00A842430C0F08536F071CF
:10032F003ED0F0E5F0243005368536F0713E22C020
:10033F00E0E5F024C07162D0E0714B22F580D2A6C7
:10034F00715222C2A5D2A7715DC2A7715D227FFA39
:10035F00DFFE22F580716722C2A6C2A5D2A77172F5
:10036F00C2A7227E197F64DFFEDEFA2290042D746D
:10037F0001718B2290043E7401718B22B4010C74B5
:10038F0080716271B074807162800A74C071627121
:10039F00B074C07162E493B4000122714BA380F575
:1003AF002278187420714BD8FA22758038716771D2
:1003BF00727580387167717275803871677172717B
:0E03CF00D122743871627172740C7162717295
:1003DD0074017162717222C2A771B97D0A71FB90AD
:1003ED00044F7401718B9004607402718B227E3204
:1003FD007F64DFFEDEFADDF6227F327EC87D0ADD08
:10040D00FEDEFADFF622758911D2AFD2A9758A3CCC
:10041D00758CB022E4F533F532F531F530C28C220E
:10042D00423231205348552053434945204D5049C0
:10043D0000423231205348552053434945204D50F9
:10044D004900202020202020202020202020202096
:10045D0020200054494D4520202020202020202000
:04046D00202020002B
:00000001FF
